{
    "contractName": "School",
    "abi": [
        {
            "inputs": [
                {
                    "internalType": "string",
                    "name": "_name",
                    "type": "string"
                },
                {
                    "internalType": "uint256",
                    "name": "_age",
                    "type": "uint256"
                },
                {
                    "internalType": "string",
                    "name": "_childName",
                    "type": "string"
                }
            ],
            "name": "createParent",
            "outputs": [],
            "stateMutability": "nonpayable",
            "type": "function"
        },
        {
            "inputs": [
                {
                    "internalType": "string",
                    "name": "_name",
                    "type": "string"
                },
                {
                    "internalType": "uint256",
                    "name": "_age",
                    "type": "uint256"
                },
                {
                    "internalType": "uint256",
                    "name": "_class",
                    "type": "uint256"
                },
                {
                    "internalType": "string",
                    "name": "_parentName",
                    "type": "string"
                }
            ],
            "name": "createStudent",
            "outputs": [],
            "stateMutability": "nonpayable",
            "type": "function"
        },
        {
            "inputs": [
                {
                    "internalType": "string",
                    "name": "",
                    "type": "string"
                }
            ],
            "name": "mapNameToParent",
            "outputs": [
                {
                    "internalType": "string",
                    "name": "name",
                    "type": "string"
                },
                {
                    "internalType": "uint256",
                    "name": "age",
                    "type": "uint256"
                },
                {
                    "internalType": "string",
                    "name": "childName",
                    "type": "string"
                }
            ],
            "stateMutability": "view",
            "type": "function"
        },
        {
            "inputs": [
                {
                    "internalType": "string",
                    "name": "",
                    "type": "string"
                }
            ],
            "name": "mapNameToStudent",
            "outputs": [
                {
                    "internalType": "string",
                    "name": "name",
                    "type": "string"
                },
                {
                    "internalType": "uint256",
                    "name": "age",
                    "type": "uint256"
                },
                {
                    "internalType": "uint256",
                    "name": "class",
                    "type": "uint256"
                },
                {
                    "internalType": "string",
                    "name": "parentName",
                    "type": "string"
                }
            ],
            "stateMutability": "view",
            "type": "function"
        },
        {
            "inputs": [
                {
                    "internalType": "uint256",
                    "name": "",
                    "type": "uint256"
                }
            ],
            "name": "parents",
            "outputs": [
                {
                    "internalType": "string",
                    "name": "name",
                    "type": "string"
                },
                {
                    "internalType": "uint256",
                    "name": "age",
                    "type": "uint256"
                },
                {
                    "internalType": "string",
                    "name": "childName",
                    "type": "string"
                }
            ],
            "stateMutability": "view",
            "type": "function"
        },
        {
            "inputs": [
                {
                    "internalType": "uint256",
                    "name": "",
                    "type": "uint256"
                }
            ],
            "name": "students",
            "outputs": [
                {
                    "internalType": "string",
                    "name": "name",
                    "type": "string"
                },
                {
                    "internalType": "uint256",
                    "name": "age",
                    "type": "uint256"
                },
                {
                    "internalType": "uint256",
                    "name": "class",
                    "type": "uint256"
                },
                {
                    "internalType": "string",
                    "name": "parentName",
                    "type": "string"
                }
            ],
            "stateMutability": "view",
            "type": "function"
        }
    ],
    "bytecode": "608060405234801561001057600080fd5b506109ee806100206000396000f3fe608060405234801561001057600080fd5b50600436106100625760003560e01c806306ead22e146100675780630856757b1461009357806367b969ea146100a8578063898572a6146100bb578063b75f34a3146100dd578063f9fbab06146100f0575b600080fd5b61007a6100753660046105b5565b610103565b60405161008a949392919061061e565b60405180910390f35b6100a66100a13660046106fd565b610253565b005b61007a6100b6366004610774565b610347565b6100ce6100c93660046105b5565b61036d565b60405161008a939291906107b1565b6100ce6100eb366004610774565b6104b7565b6100a66100fe3660046107e6565b6104dd565b6003818154811061011357600080fd5b906000526020600020906004020160009150905080600001805461013690610853565b80601f016020809104026020016040519081016040528092919081815260200182805461016290610853565b80156101af5780601f10610184576101008083540402835291602001916101af565b820191906000526020600020905b81548152906001019060200180831161019257829003601f168201915b5050505050908060010154908060020154908060030180546101d090610853565b80601f01602080910402602001604051908101604052809291908181526020018280546101fc90610853565b80156102495780601f1061021e57610100808354040283529160200191610249565b820191906000526020600020905b81548152906001019060200180831161022c57829003601f168201915b5050505050905084565b60408051608081018252858152602081018590529081018390526060810182905260038054600181018255600091909152815182916004027fc2575a0e9e593c00f959f8c92f12db2869c3395a3b0502d05e2516446f71f85b019081906102ba90826108dc565b506020820151600182015560408201516002820155606082015160038201906102e390826108dc565b505050806000866040516102f7919061099c565b9081526040519081900360200190208151819061031490826108dc565b5060208201516001820155604082015160028201556060820151600382019061033d90826108dc565b5050505050505050565b805160208183018101805160008252928201919093012091528054819061013690610853565b6002818154811061037d57600080fd5b90600052602060002090600302016000915090508060000180546103a090610853565b80601f01602080910402602001604051908101604052809291908181526020018280546103cc90610853565b80156104195780601f106103ee57610100808354040283529160200191610419565b820191906000526020600020905b8154815290600101906020018083116103fc57829003601f168201915b50505050509080600101549080600201805461043490610853565b80601f016020809104026020016040519081016040528092919081815260200182805461046090610853565b80156104ad5780601f10610482576101008083540402835291602001916104ad565b820191906000526020600020905b81548152906001019060200180831161049057829003601f168201915b5050505050905083565b80516020818301810180516001825292820191909301209152805481906103a090610853565b604080516060810182528481526020810184905290810182905260028054600181018255600091909152815182916003027f405787fa12a823e0f2b7631cc41b3ba8828b3321ca811111fa75cd3aa3bb5ace0190819061053d90826108dc565b50602082015160018201556040820151600282019061055c90826108dc565b50505080600185604051610570919061099c565b9081526040519081900360200190208151819061058d90826108dc565b5060208201516001820155604082015160028201906105ac90826108dc565b50505050505050565b6000602082840312156105c757600080fd5b5035919050565b60005b838110156105e95781810151838201526020016105d1565b50506000910152565b6000815180845261060a8160208601602086016105ce565b601f01601f19169290920160200192915050565b60808152600061063160808301876105f2565b856020840152846040840152828103606084015261064f81856105f2565b979650505050505050565b634e487b7160e01b600052604160045260246000fd5b600082601f83011261068157600080fd5b813567ffffffffffffffff8082111561069c5761069c61065a565b604051601f8301601f19908116603f011681019082821181831017156106c4576106c461065a565b816040528381528660208588010111156106dd57600080fd5b836020870160208301376000602085830101528094505050505092915050565b6000806000806080858703121561071357600080fd5b843567ffffffffffffffff8082111561072b57600080fd5b61073788838901610670565b95506020870135945060408701359350606087013591508082111561075b57600080fd5b5061076887828801610670565b91505092959194509250565b60006020828403121561078657600080fd5b813567ffffffffffffffff81111561079d57600080fd5b6107a984828501610670565b949350505050565b6060815260006107c460608301866105f2565b84602084015282810360408401526107dc81856105f2565b9695505050505050565b6000806000606084860312156107fb57600080fd5b833567ffffffffffffffff8082111561081357600080fd5b61081f87838801610670565b945060208601359350604086013591508082111561083c57600080fd5b5061084986828701610670565b9150509250925092565b600181811c9082168061086757607f821691505b60208210810361088757634e487b7160e01b600052602260045260246000fd5b50919050565b601f8211156108d757600081815260208120601f850160051c810160208610156108b45750805b601f850160051c820191505b818110156108d3578281556001016108c0565b5050505b505050565b815167ffffffffffffffff8111156108f6576108f661065a565b61090a816109048454610853565b8461088d565b602080601f83116001811461093f57600084156109275750858301515b600019600386901b1c1916600185901b1785556108d3565b600085815260208120601f198616915b8281101561096e5788860151825594840194600190910190840161094f565b508582101561098c5787850151600019600388901b60f8161c191681555b5050505050600190811b01905550565b600082516109ae8184602087016105ce565b919091019291505056fea2646970667358221220dddd7ce5c4cd57acc3512d212435c540aa3ff59cda802844c16bfd1201ef9e2b64736f6c63430008130033",
    "sourcePath": "/home/hp/Desktop/rust/school.sol",
    "compiler": {
        "name": "solc",
        "version": "0.8.19+commit.7dd6d404"
    },
    "functionHashes": {
        "createParent(string,uint256,string)": "f9fbab06",
        "createStudent(string,uint256,uint256,string)": "0856757b",
        "mapNameToParent(string)": "b75f34a3",
        "mapNameToStudent(string)": "67b969ea",
        "parents(uint256)": "898572a6",
        "students(uint256)": "06ead22e"
    },
    "gasEstimates": {
        "creation": {
            "codeDepositCost": "508400",
            "executionCost": "543",
            "totalCost": "508943"
        },
        "external": {
            "createParent(string,uint256,string)": "infinite",
            "createStudent(string,uint256,uint256,string)": "infinite",
            "mapNameToParent(string)": "infinite",
            "mapNameToStudent(string)": "infinite",
            "parents(uint256)": "infinite",
            "students(uint256)": "infinite"
        }
    }
}